:020000040800F2
:10000000005000201D150008411300084713000888
:100010004D13000853130008591300080000000096
:100020000000000000000000000000005F13000856
:100030006B1300080000000077130008831300080A
:1000400065150008651500086515000865150008A8
:100050006515000865150008651500086515000898
:100060006515000865150008651500086515000888
:100070006515000865150008651500086515000878
:100080006515000865150008651500086515000868
:100090006515000865150008651500086515000858
:1000A0006515000865150008651500086515000848
:1000B0006515000865150008651500086515000838
:1000C0006515000865150008651500086515000828
:1000D0006515000865150008651500086515000818
:1000E000651500086515000865150008000000008A
:1000F0000000000000000000000000000000000000
:0C01000000000000000000005FF808F1A3
:1001100010B5054C237833B9044B13B10448AFF341
:1001200000800123237010BDE001002000000000CA
:100130007063000808B5034B1BB103490348AFF3D4
:10014000008008BD00000000E4010020706300088A
:10015000034613F8012B002AFBD1181A0138704707
:1001600081F0004102E000BF83F0004330B54FEA68
:1001700041044FEA430594EA050F08BF90EA020FD5
:100180001FBF54EA000C55EA020C7FEA645C7FEA68
:10019000655C00F0E2804FEA5454D4EB5555B8BF8B
:1001A0006D420CDD2C4480EA020281EA030382EAFC
:1001B000000083EA010180EA020281EA0303362D8E
:1001C00088BF30BD11F0004F4FEA01314FF4801C61
:1001D0004CEA113102D0404261EB410113F0004F73
:1001E0004FEA03334CEA133302D0524263EB43032A
:1001F00094EA050F00F0A780A4F10104D5F1200EC8
:100200000DDB02FA0EFC22FA05F2801841F1000122
:1002100003FA0EF2801843FA05F359410EE0A5F1F6
:1002200020050EF1200E012A03FA0EFC28BF4CF027
:10023000020C43FA05F3C01851EBE37101F00045DD
:1002400007D54FF0000EDCF1000C7EEB00006EEBEA
:100250000101B1F5801F1BD3B1F5001F0CD3490874
:100260005FEA30004FEA3C0C04F101044FEA4452CB
:1002700012F5800F80F09A80BCF1004F08BF5FEA52
:10028000500C50F1000041EB045141EA050130BD32
:100290005FEA4C0C404141EB0101013C28BFB1F544
:1002A000801FE9D291F0000F04BF01460020B1FA8F
:1002B00081F308BF2033A3F10B03B3F120020CDA62
:1002C0000C3208DD02F1140CC2F10C0201FA0CF040
:1002D00021FA02F10CE002F11402D8BFC2F1200CA5
:1002E00001FA02F120FA0CFCDCBF41EA0C0190405B
:1002F000E41AA2BF01EB0451294330BD6FEA0404A4
:100300001F3C1CDA0C340EDC04F11404C4F120028E
:1003100020FA04F001FA02F340EA030021FA04F3A0
:1003200045EA030130BDC4F10C04C4F1200220FAF7
:1003300002F001FA04F340EA0300294630BD21FA35
:1003400004F0294630BD94F0000F83F4801306BFFB
:1003500081F480110134013D4EE77FEA645C18BFEF
:100360007FEA655C29D094EA050F08BF90EA020F86
:1003700005D054EA000C04BF1946104630BD91EA7E
:10038000030F1EBF0021002030BD5FEA545C05D181
:100390004000494128BF41F0004130BD14F58004C0
:1003A0003CBF01F5801130BD01F0004545F0FE4134
:1003B00041F470014FF0000030BD7FEA645C1ABF69
:1003C000194610467FEA655C1CBF0B46024650EAA0
:1003D000013406BF52EA033591EA030F41F40021CC
:1003E00030BD00BF90F0000F04BF0021704730B552
:1003F0004FF4806404F132044FF000054FF0000127
:1004000050E700BF90F0000F04BF0021704730B5E7
:100410004FF4806404F1320410F0004548BF4042BC
:100420004FF000013EE700BF42004FEAE2014FEA11
:1004300031014FEA02701FBF12F07F4393F07F4FEC
:1004400081F06051704732F07F4208BF704793F0EF
:100450007F4F04BF41F40021704730B54FF4607402
:1004600001F0004521F000411CE700BF50EA010205
:1004700008BF704730B54FF000050AE050EA0102AE
:1004800008BF704730B511F0004502D5404261EB1E
:1004900041014FF4806404F132045FEA915C3FF45F
:1004A000D8AE4FF003025FEADC0C18BF03325FEAFC
:1004B000DC0C18BF033202EBDC02C2F1200300FAAD
:1004C00003FC20FA02F001FA03FE40EA0E0021FAD2
:1004D00002F11444BDE600BF70B54FF0FF0C4CF4C0
:1004E000E06C1CEA11541DBF1CEA135594EA0C0F72
:1004F00095EA0C0F00F0DEF82C4481EA030621EAAD
:100500004C5123EA4C5350EA013518BF52EA0335E7
:1005100041F4801143F4801338D0A0FB02CE4FF099
:100520000005E1FB02E506F00042E0FB03E54FF0C9
:100530000006E1FB03569CF0000F18BF4EF0010EC1
:10054000A4F1FF04B6F5007F64F5407404D25FEABD
:100550004E0E6D4146EB060642EAC62141EA555170
:100560004FEAC52040EA5E504FEACE2EB4F1FD0CB2
:1005700088BFBCF5E06F1ED8BEF1004F08BF5FEA30
:10058000500E50F1000041EB045170BD06F00046E2
:1005900046EA010140EA020081EA0301B4EB5C048F
:1005A000C2BFD4EB0C0541EA045170BD41F4801187
:1005B0004FF0000E013C00F3AB8014F1360FDEBFAC
:1005C000002001F0004170BDC4F10004203C35DA88
:1005D0000C341BDC04F11404C4F1200500FA05F30B
:1005E00020FA04F001FA05F240EA020001F00042AC
:1005F00021F0004110EBD37021FA04F642EB060122
:100600005EEA430E08BF20EAD37070BDC4F10C044B
:10061000C4F1200500FA04F320FA05F001FA04F20F
:1006200040EA020001F0004110EBD37041F10001FB
:100630005EEA430E08BF20EAD37070BDC4F1200506
:1006400000FA05F24EEA020E20FA04F301FA05F26E
:1006500043EA020321FA04F001F0004121FA04F216
:1006600020EA020000EBD3705EEA430E08BF20EAE6
:10067000D37070BD94F0000F0FD101F00046400020
:1006800041EB010111F4801F08BF013CF7D041EAA2
:10069000060195F0000F18BF704703F000465200A6
:1006A00043EB030313F4801F08BF013DF7D043EA77
:1006B0000603704794EA0C0F0CEA135518BF95EA2D
:1006C0000C0F0CD050EA410618BF52EA4306D1D1B4
:1006D00081EA030101F000414FF0000070BD50EAD3
:1006E000410606BF1046194652EA430619D094EA5D
:1006F0000C0F02D150EA013613D195EA0C0F05D147
:1007000052EA03361CBF104619460AD181EA03019A
:1007100001F0004141F0FE4141F470014FF0000052
:1007200070BD41F0FE4141F4780170BD70B54FF0ED
:10073000FF0C4CF4E06C1CEA11541DBF1CEA13556D
:1007400094EA0C0F95EA0C0F00F0A7F8A4EB05044F
:1007500081EA030E52EA03354FEA013100F0888046
:100760004FEA03334FF0805545EA131343EA12630F
:100770004FEA022245EA111545EA10654FEA0026C4
:100780000EF000419D4208BF964244F1FD0404F57D
:10079000407402D25B084FEA3202B61A65EB0305D9
:1007A0005B084FEA32024FF480104FF4002CB6EB96
:1007B000020E75EB030E22BFB61A754640EA0C0016
:1007C0005B084FEA3202B6EB020E75EB030E22BF56
:1007D000B61A754640EA5C005B084FEA3202B6EB97
:1007E000020E75EB030E22BFB61A754640EA9C0056
:1007F0005B084FEA3202B6EB020E75EB030E22BF26
:10080000B61A754640EADC0055EA060E18D04FEAE3
:10081000051545EA16754FEA06164FEAC30343EA83
:1008200052734FEAC2025FEA1C1CC0D111F4801F50
:100830000BD141EA00014FF000004FF0004CB6E749
:1008400011F4801F04BF01430020B4F1FD0C88BFE8
:10085000BCF5E06F3FF6AFAEB5EB030C04BFB6EBF3
:10086000020C5FEA500C50F1000041EB045170BDE6
:100870000EF0004E4EEA113114EB5C04C2BFD4EB13
:100880000C0541EA045170BD41F480114FF0000E97
:10089000013C90E645EA060E8DE60CEA135594EA13
:1008A0000C0F08BF95EA0C0F3FF43BAF94EA0C0F16
:1008B0000AD150EA01347FF434AF95EA0C0F7FF48B
:1008C00025AF104619462CE795EA0C0F06D152EADF
:1008D00003353FF4FDAE1046194622E750EA4106C3
:1008E00018BF52EA43067FF4C5AE50EA41047FF4D4
:1008F0000DAF52EA43057FF4EBAE12E74FF0FF3C39
:1009000006E000BF4FF0010C02E000BF4FF0010C09
:100910004DF804CD4FEA410C7FEA6C5C4FEA430C82
:1009200018BF7FEA6C5C1BD001B050EA410C0CBFD1
:1009300052EA430C91EA030F02BF90EA020F002033
:10094000704710F1000F91EA030F58BF994208BF9A
:1009500090422CBFD8176FEAE37040F00100704757
:100960004FEA410C7FEA6C5C02D150EA013C07D1AE
:100970004FEA430C7FEA6C5CD6D152EA033CD3D0F9
:100980005DF8040B704700BF8446104662468C46F3
:100990001946634600E000BF01B5FFF7B7FF002826
:1009A00048BF10F1000F01BD4DF808EDFFF7F4FF4F
:1009B0000CBF012000205DF808FB00BF4DF808EDDA
:1009C000FFF7EAFF34BF012000205DF808FB00BFFD
:1009D0004DF808EDFFF7E0FF94BF012000205DF81F
:1009E00008FB00BF4DF808EDFFF7CEFF94BF0120D4
:1009F00000205DF808FB00BF4DF808EDFFF7C4FFCD
:100A000034BF012000205DF808FB00BF4FEA410C15
:100A10007FEA6C5C02D150EA013C0AD14FEA430CF8
:100A20007FEA6C5C02D152EA033C02D14FF0000035
:100A300070474FF0010070474FEA410212F5001273
:100A400015D211D56FF47873B3EB625212D94FEA15
:100A5000C12343F0004343EA505311F0004F23FAFF
:100A600002F018BF404270474FF00000704750EA54
:100A7000013005D111F0004008BF6FF00040704711
:100A80004FF00000704700BF53B94AB9002908BFB2
:100A900000281CBF4FF0FF314FF0FF3000F076B957
:100AA000ADF1080C6DE904CE00F006F8DDF804E0C5
:100AB000DDE9022304B070472DE9F047089E0D469A
:100AC00004468846002B4DD18A42944668D9B2FA32
:100AD00082F252B101FA02F3C2F1200120FA01F1CF
:100AE0000CFA02FC41EA030894404FEA1C41B8FBAF
:100AF000F1F71FFA8CFE01FB178807FB0EF0230CA1
:100B000043EA084398420AD91CEB030307F1FF3577
:100B100080F01E81984240F21B81023F63441B1A01
:100B2000B3FBF1F001FB103300FB0EFEA4B244EA6C
:100B30000344A6450AD91CEB040400F1FF3380F0FE
:100B40000981A64540F20681644402380021A4EBE5
:100B50000E0440EA07401EB10023D440C6E900431A
:100B6000BDE8F0878B4208D9002E00F0EE8000210E
:100B7000C6E900050846BDE8F087B3FA83F100290D
:100B80004AD1AB4202D3824200F2FC80841A65EB68
:100B9000030301209846002EE2D0C6E90048DFE7B3
:100BA00002B9FFDEB2FA82F2002A40F09180A1EB96
:100BB0000C0001214FEA1C471FFA8CFEB0FBF7F333
:100BC00007FB1300250C45EA00450EFB03F0A84285
:100BD00008D91CEB050503F1FF3802D2A84200F248
:100BE000CE8043462D1AB5FBF7F007FB10550EFBE0
:100BF00000FEA4B244EA0544A64508D91CEB04044F
:100C000000F1FF3502D2A64500F2B6802846A4EBDB
:100C10000E0440EA03409EE7C1F120078B4022FA10
:100C200007FC4CEA030C25FA07FA4FEA1C49BAFB09
:100C3000F9F820FA07F309FB18AA8D401FFA8CFE79
:100C40001D4300FA01F308FB0EF02C0C44EA0A44A1
:100C5000A04202FA01F20BD91CEB040408F1FF3A9E
:100C600080F08880A04240F28580A8F102086444A8
:100C7000241AB4FBF9F009FB104400FB0EFEADB2E0
:100C800045EA0444A64508D91CEB040400F1FF35ED
:100C90006CD2A6456AD90238644440EA0840A0FBF9
:100CA0000295A4EB0E04AC42C846AE4656D353D0D0
:100CB000002E69D0B3EB080264EB0E0422FA01F3B4
:100CC00004FA07F71F43CC40C6E90074002147E748
:100CD0000CFA02FCC2F1200125FA01F34FEA1C478D
:100CE00020FA01F195400D43B3FBF7F107FB1133F7
:100CF0001FFA8CFE280C40EA034001FB0EF38342EE
:100D000004FA02F408D91CEB000001F1FF382FD2DD
:100D100083422DD902396044C01AB0FBF7F307FBB8
:100D20001300ADB245EA004503FB0EF0A84208D916
:100D30001CEB050503F1FF3816D2A84214D9023B7B
:100D40006544281A43EA014138E73146304607E74F
:100D50002F46E4E61846F9E64B45A9D2B9EB02085E
:100D600065EB0C0E0138A3E74346EAE7284694E713
:100D70004146D1E7D0467BE76444023847E7023B6F
:100D800065442FE7084606E73146E9E6704700BFAD
:100D900080B588B000AF07F1100300221A605A60D6
:100DA0009A60DA602C4B9B692B4A43F010039361E5
:100DB000294B9B6903F01003FB60FB68264B9B6982
:100DC000254A43F004039361234B9B6903F004031A
:100DD000BB60BB68204B9B691F4A43F008039361CB
:100DE0001D4B9B6903F008037B607B680122102187
:100DF0001A4800F0BEFE01220221194800F0B9FE97
:100E000010233B6101237B610023BB610223FB6153
:100E100007F110031946114800F010FD01233B6152
:100E200000237B610023BB6107F1100319460C48C6
:100E300000F004FD02233B6101237B610023BB61C1
:100E40000223FB6107F110031946054800F0F6FC88
:100E500000BF2037BD4680BD0010024000080140A1
:100E6000000C01400000000080B586B006AF00F025
:100E70007BFB00F097F800F03BF900F0D9F800F0A8
:100E80000DF9FFF785FF00F06DF9374803F0CAF957
:100E9000364B374ADA60354B01229A60334B354A7C
:100EA0005A61324B10221A61304B314A5A602F4B33
:100EB00002221A602D4B304A9A61304B2B4A1A603D
:100EC0002F4803F0AFF90A2305930023049300236E
:100ED000039307230293012301930123009320A38B
:100EE000D3E90023254802F06CFB264803F09AF969
:100EF0004FF4FA621021214802F0BAFA0346224A5E
:100F00001360224803F08EF94FF4487000F08EFB16
:100F10001F4803F087F9194802F00FFB03461A46F1
:100F2000194B1A60184B1B6819461A4803F0F4F85D
:100F3000154B1B68002B0EDD134B1B68DBB21A46EA
:100F400015490E4802F06AFB0F4B1B68124A1946FE
:100F5000124803F0E1F8124803F064F9D1E700BF4A
:100F60008050DE1900000000886300089C02002009
:100F7000000C014000080140FC010020B8020020E4
:100F800098630008B4630008D0030020D46300080D
:100F9000E0630008F8630008D40300200864000838
:100FA0001C64000880B590B000AF07F11803282238
:100FB0000021184602F048FC3B1D00221A605A60CE
:100FC0009A60DA601A610123BB614FF48033FB61E0
:100FD00000233B620123BB6202237B634FF4803317
:100FE000BB634FF4E013FB6307F11803184600F0EE
:100FF000D9FD0346002B01D000F0AEF80F237B6033
:101000000223BB600023FB604FF480633B6100233D
:101010007B613B1D0221184601F046F80346002B78
:1010200001D000F099F800BF4037BD4680BD0000F8
:1010300080B500AF174B184A1A60164B4FF48272F6
:101040005A60144B00229A60124B0022DA60114B56
:1010500000221A610F4B00225A610E4B4FF40072AE
:101060009A610C4B1822DA610A4B00221A62094B72
:1010700000225A62074B00229A62064B0A22DA6269
:10108000044801F09FF90346002B01D000F064F8FA
:1010900000BF80BDFC0100200030014080B500AFE2
:1010A000114B124A1A60104B4FF4E1325A600E4B4A
:1010B00000229A600C4B0022DA600B4B00221A616E
:1010C000094B0C225A61084B00229A61064B002200
:1010D000DA61054801F0ADFD0346002B01D000F0B8
:1010E0003BF800BF80BD00BF540200200038014023
:1010F00080B483B000AF0E4B9B690D4A43F02003D0
:1011000093610B4B9B6903F020037B607B68084B6A
:101110009B69074A43F004039361054B9B6903F005
:1011200004033B603B6800BF0C37BD4680BC704782
:101130000010024080B582B000AF7860391D4FF6D4
:10114000FF730122034801F0C4FD7B68184608378D
:10115000BD4680BD5402002080B400AF72B600BF0F
:10116000FEE7000080B500AF174B184A1A60164B17
:101170004FF482725A60144B00229A60124B002284
:10118000DA60114B00221A610F4B00225A610E4B9C
:101190004FF400729A610C4B1822DA610A4B00225C
:1011A0001A62094B00225A62074B00229A62064BD0
:1011B0000722DA62044801F005F90346002B01D04A
:1011C000FFF7CAFF00BF80BDFC01002000300140D6
:1011D00080B483B000AF0E4B9B690D4A43F001030E
:1011E00093610B4B9B6903F001037B607B68084BA9
:1011F000DB69074A43F08053D361054BDB6903F099
:1012000080533B603B6800BF0C37BD4680BC7047D5
:101210000010024080B588B000AF786007F110037D
:1012200000221A605A609A60DA607B681B681B4A69
:1012300093422FD11A4B9B69194A43F4805393610F
:10124000174B9B6903F48053FB60FB68144B9B694D
:10125000134A43F004039361114B9B6903F00403A9
:10126000BB60BB68A0233B6102237B610323FB615E
:1012700007F1100319460B4800F0E0FA40233B61E8
:1012800000237B610023BB6107F110031946054869
:1012900000F0D4FA00BF2037BD4680BD00300140C9
:1012A000001002400008014080B588B000AF7860AF
:1012B00007F1100300221A605A609A60DA607B68B6
:1012C0001B681C4A934231D11B4B9B691A4A43F459
:1012D00080439361184B9B6903F48043FB60FB6878
:1012E000154B9B69144A43F004039361124B9B69AD
:1012F00003F00403BB60BB684FF400733B6102233F
:101300007B610323FB6107F1100319460B4800F0D2
:1013100095FA4FF480633B6100237B610023BB613E
:1013200007F110031946054800F088FA00BF20377E
:10133000BD4680BD00380140001002400008014059
:1013400080B400AFFEE780B400AFFEE780B400AF2A
:10135000FEE780B400AFFEE780B400AFFEE780B4E4
:1013600000AF00BFBD4680BC704780B400AF00BF77
:10137000BD4680BC704780B400AF00BFBD4680BC96
:10138000704780B500AF00F035F900BF80BD80B474
:1013900000AF01231846BD4680BC704780B582B0BF
:1013A00000AF7860396002F017FA034616221A601F
:1013B0004FF0FF3318460837BD4680BD80B582B078
:1013C00000AF78604FF0FF317868FFF7E7FFFEE786
:1013D00080B586B000AFF860B9607A6000237B61A9
:1013E0000AE0AFF300800146BB685A1CBA60CAB27B
:1013F0001A707B6901337B617A697B689A42F0DB02
:101400007B6818461837BD4680BD80B586B000AFF2
:10141000F860B9607A6000237B6109E0BB685A1C00
:10142000BA601B781846FFF785FE7B6901337B6144
:101430007A697B689A42F1DB7B6818461837BD46AB
:1014400080BD80B483B000AF78604FF0FF331846A2
:101450000C37BD4680BC704780B483B000AF786065
:1014600039603B684FF400525A60002318460C372D
:10147000BD4680BC704780B483B000AF7860012364
:1014800018460C37BD4680BC704780B485B000AFAD
:10149000F860B9607A60002318461437BD4680BCF6
:1014A0007047000080B586B000AF7860144A154BD5
:1014B000D31A7B617B693B61134B1B68002B02D104
:1014C000114B124A1A60104B1A687B6813443A6930
:1014D0009A4207D202F080F903460C221A604FF0BC
:1014E000FF3309E0084B1B68FB60074B1A687B68F9
:1014F0001344054A1360FB6818461837BD4680BD83
:101500000050002000040000D4050020F005002059
:1015100080B400AF00BFBD4680BC7047FFF7F8FF46
:101520000B480C490C4A002302E0D458C450043341
:10153000C4188C42F9D3094A094C002301E0136016
:101540000432A242FBD302F04DF9FFF78DFC704745
:1015500000000020DC0100206C680008E001002091
:10156000EC050020FEE7000080B500AF084B1B68CB
:10157000074A43F010031360032000F02BF90F20FB
:1015800000F008F8FFF724FE0023184680BD00BFD6
:101590000020024080B582B000AF7860124B1A681C
:1015A000124B1B7819464FF47A73B3FBF1F3B2FB7D
:1015B000F3F3184600F035F90346002B01D0012360
:1015C0000EE07B680F2B0AD8002279684FF0FF30BD
:1015D00000F00BF9064A7B681360002300E001234A
:1015E00018460837BD4680BD0000002008000020D6
:1015F0000400002080B400AF054B1B781A46054B51
:101600001B681344034A136000BFBD4680BC70478B
:1016100008000020D805002080B400AF024B1B68F2
:101620001846BD4680BC7047D805002080B584B000
:1016300000AF7860FFF7F0FFB8607B68FB60FB6885
:10164000B3F1FF3F05D00A4B1B781A46FB681344E1
:10165000FB6000BFFFF7E0FF0246BB68D31AFA68E1
:101660009A42F7D800BF00BF1037BD4680BD00BF0B
:101670000800002080B485B000AF78607B6803F07C
:101680000703FB600C4BDB68BB60BA684FF6FF03D7
:101690001340BB60FB681A02BB68134343F0BF638F
:1016A00043F40033BB60044ABB68D36000BF143707
:1016B000BD4680BC704700BF00ED00E080B400AFC5
:1016C000044BDB681B0A03F007031846BD4680BCC9
:1016D000704700BF00ED00E080B483B000AF034668
:1016E0003960FB7197F90730002B0ADB3B68DAB2EF
:1016F0000C4997F907301201D2B20B4483F800234A
:101700000AE03B68DAB20849FB7903F00F03043BB7
:101710001201D2B20B441A7600BF0C37BD4680BC12
:10172000704700BF00E100E000ED00E080B489B048
:1017300000AFF860B9607A60FB6803F00703FB61F3
:10174000FB69C3F10703042B28BF0423BB61FB69BA
:101750000433062B02D9FB69033B00E000237B61C5
:101760004FF0FF32BB6902FA03F3DA43BB681A4059
:101770007B699A404FF0FF317B6901FA03F3D9434B
:101780007B680B40134318462437BD4680BC704726
:1017900080B582B000AF78607B68013BB3F1807F99
:1017A00001D301230FE00A4A7B68013B53600F21FC
:1017B0004FF0FF30FFF790FF054B00229A60044B7B
:1017C00007221A60002318460837BD4680BD00BFB7
:1017D00010E000E080B582B000AF78607868FFF775
:1017E00049FF00BF0837BD4680BD80B586B000AF59
:1017F0000346B9607A60FB7300237B61FFF75EFFED
:1018000078617A68B9687869FFF790FF024697F9BE
:101810000F3011461846FFF75FFF00BF1837BD466F
:1018200080BD80B582B000AF78607868FFF7B0FF08
:10183000034618460837BD4680BD000080B48BB013
:1018400000AF7860396000237B6200233B6269E16E
:1018500001227B6A02FA03F3FB613B681B68FA69A9
:101860001340BB61BA69FB699A4240F058813B68FA
:101870005B689A4A93425ED0984A934275D8984AD8
:10188000934258D0964A93426FD8964A934252D088
:10189000944A934269D8944A93424CD0924A9342D4
:1018A00063D8924A934246D0904A93425DD8122B15
:1018B0002AD8122B59D801A252F823F03719000860
:1018C0001119000823190008651900086B19000890
:1018D0006B1900086B1900086B1900086B190008D8
:1018E0006B1900086B1900086B1900086B190008C8
:1018F0006B1900086B1900086B1900086B190008B8
:10190000191900082D190008794A934213D02CE0C8
:101910003B68DB683B6229E03B68DB6804333B6281
:1019200024E03B68DB6808333B621FE03B68DB6810
:101930000C333B621AE03B689B68002B02D1042306
:101940003B6213E03B689B68012B05D108233B6297
:101950007B68FA691A6109E008233B627B68FA69CF
:101960005A6103E000233B6200E000BFBB69FF2B2C
:1019700001D87B6801E07B6804337B61BB69FF2B86
:1019800002D87B6A9B0002E07B6A083B9B003B61BC
:101990007B691A680F213B6901FA03F3DB431A40A4
:1019A000396A3B6901FA03F31A437B691A603B68A1
:1019B0005B6803F08053002B00F0B1804D4B9B69B6
:1019C0004C4A43F0010393614A4B9B6903F00103C6
:1019D000BB60BB68484A7B6A9B08023352F82330DD
:1019E000FB607B6A03F003039B000F2202FA03F300
:1019F000DB43FA681340FB607B68404A934213D094
:101A00007B683F4A93420DD07B683E4A934207D0A1
:101A10007B683D4A934201D1032306E0042304E09E
:101A2000022302E0012300E000237A6A02F00302AD
:101A300092009340FA681343FB602F497B6A9B082E
:101A40000233FA6841F823203B685B6803F4801393
:101A5000002B06D02D4B9A682C49BB6913438B6031
:101A600006E02A4B9A68BB69DB43284913408B6028
:101A70003B685B6803F40013002B06D0234BDA6845
:101A80002249BB691343CB6006E0204BDA68BB698F
:101A9000DB431E491340CB603B685B6803F40033B3
:101AA000002B06D0194B5A681849BB6913434B6089
:101AB00006E0164B5A68BB69DB43144913404B6080
:101AC0003B685B6803F48033002B21D00F4B1A680E
:101AD0000E49BB6913430B6021E000BF00003210C8
:101AE0000000311000002210000021100000121030
:101AF00000001110001002400000014000080140E9
:101B0000000C01400010014000140140000401409D
:101B10000B4B1A68BB69DB43094913400B607B6AB6
:101B200001337B623B681A687B6A22FA03F3002B5D
:101B30007FF48EAE00BF00BF2C37BD4680BC70471F
:101B40000004014080B485B000AF78600B467B8014
:101B50007B689A687B881340002B02D00123FB73BB
:101B600001E00023FB73FB7B18461437BD4680BCA5
:101B7000704780B483B000AF78600B467B8013461B
:101B80007B707B78002B03D07A887B681A6103E036
:101B90007B881A047B681A6100BF0C37BD4680BC85
:101BA0007047000080B586B000AF78607B68002B7E
:101BB00001D1012372E27B681B6803F00103002B53
:101BC00000F08780924B5B6803F00C03042B0CD071
:101BD0008F4B5B6803F00C03082B12D18C4B5B68B6
:101BE00003F48033B3F5803F0BD1894B1B6803F4BA
:101BF0000033002B6CD07B685B68002B68D101231D
:101C00004CE27B685B68B3F5803F06D1804B1B6874
:101C10007F4A43F4803313602EE07B685B68002BBF
:101C20000CD17B4B1B687A4A23F480331360784BCA
:101C30001B68774A23F4802313601DE07B685B6890
:101C4000B3F5A02F0CD1724B1B68714A43F480236B
:101C500013606F4B1B686E4A43F4803313600BE0D4
:101C60006B4B1B686A4A23F480331360684B1B6814
:101C7000674A23F4802313607B685B68002B13D0D2
:101C8000FFF7CAFC386108E0FFF7C6FC02463B6973
:101C9000D31A642B01D9032300E25D4B1B6803F4C4
:101CA0000033002BF0D014E0FFF7B6FC386108E0F9
:101CB000FFF7B2FC02463B69D31A642B01D9032318
:101CC000ECE1534B1B6803F40033002BF0D100E030
:101CD00000BF7B681B6803F00203002B63D04C4BF2
:101CE0005B6803F00C03002B0BD0494B5B6803F0DF
:101CF0000C03082B1CD1464B5B6803F48033002B8C
:101D000016D1434B1B6803F00203002B05D07B6800
:101D10001B69012B01D00123C0E13D4B1B6823F05F
:101D2000F8027B685B69DB00394913430B603AE0DA
:101D30007B681B69002B20D0364B01221A60FFF70D
:101D40006BFC386108E0FFF767FC02463B69D31A79
:101D5000022B01D90323A1E12D4B1B6803F00203E1
:101D6000002BF0D02A4B1B6823F0F8027B685B69DC
:101D7000DB00274913430B6015E0264B00221A6055
:101D8000FFF74AFC386108E0FFF746FC02463B6972
:101D9000D31A022B01D9032380E11D4B1B6803F0EA
:101DA0000203002BF0D17B681B6803F00803002BB3
:101DB0003AD07B689B69002B19D0174B01221A601F
:101DC000FFF72AFC386108E0FFF726FC02463B6972
:101DD000D31A022B01D9032360E10D4B5B6A03F098
:101DE0000203002BF0D0012000F0CEFA1CE00A4BD9
:101DF00000221A60FFF710FC38610FE0FFF70CFCBF
:101E000002463B69D31A022B08D9032346E100BFDF
:101E1000001002400000424280044242924B5B6A42
:101E200003F00203002BE9D17B681B6803F0040375
:101E3000002B00F0A6800023FB758B4BDB6903F0C1
:101E40008053002B0DD1884BDB69874A43F08053C8
:101E5000D361854BDB6903F08053BB60BB68012312
:101E6000FB75824B1B6803F48073002B18D17F4BEA
:101E70001B687E4A43F480731360FFF7CDFB386123
:101E800008E0FFF7C9FB02463B69D31A642B01D96E
:101E9000032303E1754B1B6803F48073002BF0D020
:101EA0007B68DB68012B06D16F4B1B6A6E4A43F0DF
:101EB000010313622DE07B68DB68002B0CD16A4BB9
:101EC0001B6A694A23F001031362674B1B6A664A67
:101ED00023F0040313621CE07B68DB68052B0CD144
:101EE000614B1B6A604A43F0040313625E4B1B6A3A
:101EF0005D4A43F0010313620BE05B4B1B6A5A4AD5
:101F000023F001031362584B1B6A574A23F0040362
:101F100013627B68DB68002B15D0FFF77DFB38610F
:101F20000AE0FFF779FB02463B69D31A41F2883297
:101F3000934201D90323B1E04B4B1B6A03F0020328
:101F4000002BEED014E0FFF767FB38610AE0FFF7E3
:101F500063FB02463B69D31A41F28832934201D9AE
:101F600003239BE0404B1B6A03F00203002BEED1DE
:101F7000FB7D012B05D13C4BDB693B4A23F08053B1
:101F8000D3617B68DB69002B00F08780364B5B6890
:101F900003F00C03082B61D07B68DB69022B46D170
:101FA000334B00221A60FFF737FB386108E0FFF778
:101FB00033FB02463B69D31A022B01D903236DE0A0
:101FC000294B1B6803F00073002BF0D17B681B6A60
:101FD000B3F5803F08D1244B5B6823F400327B6863
:101FE0009B68214913434B601F4B5B6823F47412B9
:101FF0007B68196A7B685B6A0B431B4913434B6020
:102000001B4B01221A60FFF707FB386108E0FFF75E
:1020100003FB02463B69D31A022B01D903233DE09F
:10202000114B1B6803F00073002BF0D035E0104B10
:1020300000221A60FFF7F0FA386108E0FFF7ECFAC7
:1020400002463B69D31A022B01D9032326E0064B33
:102050001B6803F00073002BF0D11EE07B68DB6986
:10206000012B07D1012319E000100240007000404D
:10207000600042420B4B5B68FB60FB6803F48032FC
:102080007B681B6A9A4206D1FB6803F470127B6876
:102090005B6A9A4201D0012300E0002318461837FA
:1020A000BD4680BD0010024080B584B000AF7860AE
:1020B00039607B68002B01D10123D0E06A4B1B689B
:1020C00003F007033A689A4210D9674B1B6823F064
:1020D000070265493B6813430B60634B1B6803F0C1
:1020E00007033A689A4201D00123B8E07B681B6875
:1020F00003F00203002B20D07B681B6803F004036D
:10210000002B05D0594B5B68584A43F4E063536099
:102110007B681B6803F00803002B05D0534B5B68FA
:10212000524A43F460535360504B5B6823F0F00213
:102130007B689B684D4913434B607B681B6803F0C9
:102140000103002B40D07B685B68012B07D1474B14
:102150001B6803F40033002B15D101237FE07B685B
:102160005B68022B07D1414B1B6803F00073002B07
:1021700009D1012373E03D4B1B6803F00203002BE0
:1021800001D101236BE0394B5B6823F003027B68CC
:102190005B68364913434B60FFF73EFAF8600AE08C
:1021A000FFF73AFA0246FB68D31A41F288329342AB
:1021B00001D9032353E02D4B5B6803F00C027B68CD
:1021C0005B689B009A42EBD1274B1B6803F0070327
:1021D0003A689A4210D2244B1B6823F00702224926
:1021E0003B6813430B60204B1B6803F007033A68FE
:1021F0009A4201D0012332E07B681B6803F004039C
:10220000002B08D0194B5B6823F4E0627B68DB6825
:10221000164913434B607B681B6803F00803002BCF
:1022200009D0124B5B6823F460527B681B69DB00AA
:102230000E4913434B6000F021F802460B4B5B68DC
:102240001B0903F00F030A49CB5C22FA03F3094A86
:102250001360094B1B681846FFF79CF900231846CA
:102260001037BD4680BD00BF002002400010024074
:1022700034640008000000200400002080B487B00F
:1022800000AF0023FB600023BB6000237B610023C1
:102290007B6000233B611E4B5B68FB60FB6803F0C7
:1022A0000C03042B02D0082B03D027E0194B3B6111
:1022B00027E0FB689B0C03F00F03174AD35C7B609D
:1022C000FB6803F48033002B10D0114B5B685B0C70
:1022D00003F00103114AD35CBB607B680D4A03FB2A
:1022E00002F2BB68B2FBF3F37B6104E07B680C4A4B
:1022F00002FB03F37B617B693B6102E0054B3B61C1
:1023000000BF3B6918461C37BD4680BC704700BF04
:102310000010024000127A004C6400085C6400085F
:1023200000093D0080B400AF024B1B681846BD4653
:1023300080BC70470000002080B500AFFFF7F2FFBF
:102340000246054B5B681B0A03F007030349CB5C9D
:1023500022FA03F3184680BD0010024044640008CE
:1023600080B500AFFFF7DEFF0246054B5B68DB0A76
:1023700003F007030349CB5C22FA03F3184680BD40
:10238000001002404464000880B485B000AF78605B
:102390000A4B1B680A4AA2FB03235B0A7A6802FB0A
:1023A00003F3FB6000BFFB685A1EFA60002BF9D1F3
:1023B00000BF00BF1437BD4680BC7047000000203E
:1023C000D34D621080B582B000AF78607B68002B7F
:1023D00001D1012376E07B685B6A002B08D17B6822
:1023E0005B68B3F5827F09D07B680022DA6105E083
:1023F0007B6800221A617B6800225A617B68002298
:102400009A627B6893F85130DBB2002B06D17B686F
:10241000002283F850207868FEF7FCFE7B680222D9
:1024200083F851207B681B681A687B681B6822F060
:1024300040021A607B685B6803F482727B689B6869
:1024400003F404431A437B68DB6803F400631A4314
:102450007B681B6903F002031A437B685B6903F026
:1024600001031A437B689B6903F400731A437B687A
:10247000DB6903F038031A437B681B6A03F08003AF
:1024800042EA03017B689B6A03F400527B681B6885
:102490000A431A607B689B691A0C7B681B6802F010
:1024A00004025A607B681B68DA697B681B6822F447
:1024B0000062DA617B6800225A657B68012283F83A
:1024C0005120002318460837BD4680BD80B588B02E
:1024D00000AFF860B9603B601346FB80FFF79CF8E3
:1024E000F861FB887B83FB6893F85130DBB2012BEA
:1024F00001D002232AE1BB68002B02D0FB88002B0D
:1025000001D1012322E1FB6893F85030012B01D166
:1025100002231BE1FB68012283F85020FB680322A1
:1025200083F85120FB6800225A65FB68BA681A6379
:10253000FB68FA889A86FB68FA88DA86FB680022CC
:102540009A63FB6800229A87FB680022DA87FB689F
:1025500000225A64FB6800221A64FB689B68B3F58A
:10256000004F0FD1FB681B681A68FB681B6822F0DC
:1025700040021A60FB681B681A68FB681B6842F41B
:1025800080421A60FB681B681B6803F04003402B05
:1025900007D0FB681B681A68FB681B6842F04002A2
:1025A0001A60FB68DB68B3F5006F52D1FB685B68AB
:1025B000002B02D07B8B012B45D1FB681B6B1A884B
:1025C000FB681B68DA60FB681B6B9A1CFB681A636C
:1025D000FB68DB8E9BB2013B9AB2FB68DA8632E085
:1025E000FB681B689B6803F00203022B12D1FB6897
:1025F0001B6B1A88FB681B68DA60FB681B6B9A1CF4
:10260000FB681A63FB68DB8E9BB2013B9AB2FB68E6
:10261000DA8618E0FFF700F80246FB69D31A3A6839
:102620009A4203D83B68B3F1FF3F02D13B68002BCD
:1026300009D1FB68012283F85120FB68002283F84E
:102640005020032382E0FB68DB8E9BB2002BC7D1B6
:1026500053E0FB685B68002B02D07B8B012B47D1DA
:10266000FB681A6BFB681B680C3312781A70FB68E6
:102670001B6B5A1CFB681A63FB68DB8E9BB2013B29
:102680009AB2FB68DA8633E0FB681B689B6803F04C
:102690000203022B13D1FB681A6BFB681B680C3317
:1026A00012781A70FB681B6B5A1CFB681A63FB6874
:1026B000DB8E9BB2013B9AB2FB68DA8618E0FEF72C
:1026C000ABFF0246FB69D31A3A689A4203D83B68CB
:1026D000B3F1FF3F02D13B68002B09D1FB68012217
:1026E00083F85120FB68002283F8502003232DE05B
:1026F000FB68DB8E9BB2002BC6D1FA693968F8689B
:1027000000F066FA0346002B02D0FB6820225A65CF
:10271000FB689B68002B0AD100237B61FB681B6868
:10272000DB687B61FB681B689B687B617B69FB687E
:10273000012283F85120FB68002283F85020FB68B7
:102740005B6D002B01D0012300E0002318462037E9
:10275000BD4680BD80B58AB000AFF860B9607A60D0
:102760007B8001237B62FEF757FF3862FB6893F89A
:102770005130FB77FB685B68BB617B88FB82FB7F2A
:10278000012B0CD0BB69B3F5827F06D1FB689B6837
:10279000002B02D1FB7F042B01D002237FE1BB6819
:1027A000002B05D07B68002B02D07B88002B01D149
:1027B000012374E1FB6893F85030012B01D102230F
:1027C0006DE1FB68012283F85020FB6893F85130DB
:1027D000DBB2042B03D0FB68052283F85120FB6891
:1027E00000225A65FB687A689A63FB687A88DA8700
:1027F000FB687A889A87FB68BA681A63FB687A88EC
:10280000DA86FB687A889A86FB6800221A64FB687D
:1028100000225A64FB681B681B6803F04003402BCE
:1028200007D0FB681B681A68FB681B6842F040020F
:102830001A60FB68DB68B3F5006F7ED1FB685B68EC
:10284000002B02D0FB8A012B6CD1FB681B6B1A8812
:10285000FB681B68DA60FB681B6B9A1CFB681A63D9
:10286000FB68DB8E9BB2013B9AB2FB68DA8659E0CB
:10287000FB681B689B6803F00203022B1BD1FB68FB
:10288000DB8E9BB2002B16D07B6A012B13D1FB6829
:102890001B6B1A88FB681B68DA60FB681B6B9A1C51
:1028A000FB681A63FB68DB8E9BB2013B9AB2FB6844
:1028B000DA8600237B62FB681B689B6803F00103D8
:1028C000012B19D1FB68DB8F9BB2002B14D0FB6866
:1028D0001B68DA68FB689B6B92B21A80FB689B6B83
:1028E0009A1CFB689A63FB68DB8F9BB2013B9AB230
:1028F000FB68DA8701237B62FEF78EFE02463B6AA5
:10290000D31A3A6B9A420DD83B6BB3F1FF3F09D013
:10291000FB68012283F85120FB68002283F85020D5
:102920000323BCE0FB68DB8E9BB2002BA0D1FB68CD
:10293000DB8F9BB2002B9BD182E0FB685B68002B96
:1029400002D0FB8A012B71D1FB681A6BFB681B68F4
:102950000C3312781A70FB681B6B5A1CFB681A63E5
:10296000FB68DB8E9BB2013B9AB2FB68DA865DE0C6
:10297000FB681B689B6803F00203022B1CD1FB68F9
:10298000DB8E9BB2002B17D07B6A012B14D1FB6826
:102990001A6BFB681B680C3312781A70FB681B6B90
:1029A0005A1CFB681A63FB68DB8E9BB2013B9AB230
:1029B000FB68DA8600237B62FB681B689B6803F078
:1029C0000103012B19D1FB68DB8F9BB2002B14D0C4
:1029D000FB681B68DA68FB689B6BD2B21A70FB68F5
:1029E0009B6B5A1CFB689A63FB68DB8F9BB2013BB5
:1029F0009AB2FB68DA8701237B62FEF70DFE02467E
:102A00003B6AD31A3A6B9A4203D83B6BB3F1FF3F50
:102A100002D13B6B002B09D1FB68012283F85120C6
:102A2000FB68002283F85020032338E0FB68DB8E2C
:102A30009BB2002B9CD1FB68DB8F9BB2002B97D104
:102A40003A6A396BF86800F0C3F80346002B08D0E7
:102A5000FB6820225A65FB68002283F8502001237E
:102A60001DE0FB689B68002B0AD100233B61FB68DB
:102A70001B68DB683B61FB681B689B683B613B69CB
:102A8000FB68012283F85120FB68002283F8502064
:102A9000FB685B6D002B01D0012300E0002318468A
:102AA0002837BD4680BD80B483B000AF78607B68B6
:102AB00093F85130DBB218460C37BD4680BC7047E6
:102AC00080B588B000AFF860B9603B601346FB7119
:102AD000FEF7A2FD0246BB6A9B1A3A681344FB61EB
:102AE000FEF79AFDB861394B1B685B011B0DFA6953
:102AF00002FB03F37B6154E03B68B3F1FF3F50D02E
:102B0000FEF78AFD0246BB69D31AFA699A4202D9D6
:102B1000FB69002B3DD1FB681B685A68FB681B688A
:102B200022F0E0025A60FB685B68B3F5827F11D146
:102B3000FB689B68B3F5004F04D0FB689B68B3F556
:102B4000806F07D1FB681B681A68FB681B6822F05E
:102B500040021A60FB689B6AB3F5005F0FD1FB6807
:102B60001B681A68FB681B6822F400521A60FB6835
:102B70001B681A68FB681B6842F400521A60FB6805
:102B8000012283F85120FB68002283F850200323A0
:102B900017E07B69002B01D10023FB617B69013BBE
:102BA0007B61FB681B689A68BB681340BA689A42ED
:102BB0000CBF01230023DBB21A46FB799A429BD15A
:102BC000002318462037BD4680BD00BF000000200E
:102BD00080B586B002AFF860B9607A607B68009318
:102BE000BB6801220221F868FFF76AFF0346002B49
:102BF00007D0FB685B6D43F02002FB685A65032336
:102C000013E07B680093BB6800228021F868FFF71F
:102C100057FF0346002B07D0FB685B6D43F0200293
:102C2000FB685A65032300E0002318461037BD46B1
:102C300080BD80B582B000AF78607B68002B01D189
:102C4000012342E07B6893F84130DBB2002B06D1D0
:102C50007B68002283F840207868FEF725FB7B68BC
:102C6000242283F841207B681B68DA687B681B6834
:102C700022F40052DA60786800F072F97B681B6811
:102C80001A697B681B6822F490421A617B681B6892
:102C90005A697B681B6822F02A025A617B681B68AC
:102CA000DA687B681B6842F40052DA607B680022B5
:102CB0005A647B68202283F841207B68202283F8B5
:102CC00042207B6800225A63002318460837BD461D
:102CD00080BD80B58AB002AFF860B9603B60134632
:102CE000FB8000237B61FB6893F84130DBB2202B33
:102CF00075D1BB68002B02D0FB88002B01D10123CA
:102D00006EE0FB6800225A64FB68212283F84120B0
:102D1000FEF782FC7861FB68FA889A84FB68FA887F
:102D2000DA84FB689B68B3F5805F08D1FB681B6998
:102D3000002B04D10023FB61BB68BB6103E0BB68CF
:102D4000FB610023BB612EE03B6800937B6900229E
:102D50008021F86800F048F80346002B05D0FB6896
:102D6000202283F8412003233AE0FB69002B0BD19A
:102D7000BB691B881A46FB681B68C2F308025A60CD
:102D8000BB690233BB6107E0FB691A78FB681B680B
:102D90005A60FB690133FB61FB68DB8C9BB2013B32
:102DA0009AB2FB68DA84FB68DB8C9BB2002BCBD138
:102DB0003B6800937B6900224021F86800F014F81A
:102DC0000346002B05D0FB68202283F84120032313
:102DD00006E0FB68202283F84120002300E0022364
:102DE00018462037BD4680BD80B586B000AFF8607C
:102DF000B9603B601346FB713BE03B6AB3F1FF3FB8
:102E000037D0FEF709FC02463B68D31A3A6A9A4269
:102E100002D33B6A002B01D103233AE0FB681B6815
:102E2000DB6803F00403002B23D0BB68802B20D089
:102E3000BB68402B1DD0FB681B681B6803F00803B0
:102E4000082B16D100237B61FB681B681B687B6124
:102E5000FB681B685B687B617B69F86800F01DF8A4
:102E6000FB6808225A64FB68002283F84020012393
:102E70000FE0FB681B681A68BB681340BA689A4287
:102E80000CBF01230023DBB21A46FB799A42B4D06F
:102E9000002318461837BD4680BD80B495B000AFFA
:102EA00078607B681B680C337B637B6B53E8003F67
:102EB0003B633B6B23F49073FB647B681B680C33B0
:102EC000FA6C3A64FB63F96B3A6C41E80023BB632C
:102ED000BB6B002BE5D17B681B6814333B623B6AFC
:102EE00053E8003FFB61FB6923F00103BB647B688F
:102EF0001B681433BA6CFA62BB62B96AFA6A41E8B9
:102F000000237B627B6A002BE5D17B681B6B012B66
:102F100019D17B681B680C33FB60FB6853E8003FEA
:102F2000BB60BB6823F010037B647B681B680C33B9
:102F30007A6CBA617B617969BA6941E800233B61C7
:102F40003B69002BE5D17B68202283F842207B6817
:102F500000221A6300BF5437BD4680BC7047000092
:102F600080B584B000AF78607B681B681B6923F470
:102F700040517B68DA687B681B680A431A617B688A
:102F80009A687B681B691A437B685B691343BB6063
:102F90007B681B68DB6823F4B05323F00C037A686A
:102FA0001268B9680B43D3607B681B685B6923F4C4
:102FB00040717B689A697B681B680A435A617B6829
:102FC0001B682C4A934203D1FFF7CAF9F86002E06C
:102FD000FFF7B2F9F860FA6813469B0013449A00B1
:102FE0001A447B685B689B00B2FBF3F3224AA2FBA6
:102FF00003235B091901FA6813469B0013449A00E6
:103000001A447B685B689B00B2FBF3F21A4BA3FB8C
:1030100002035B09642000FB03F3D31A1B01323364
:10302000154AA2FB03235B0903F0F0031944FA6875
:1030300013469B0013449A001A447B685B689B000C
:10304000B2FBF3F20C4BA3FB02035B09642000FB11
:1030500003F3D31A1B013233074AA2FB03235B0994
:1030600003F00F027B681B680A449A6000BF1037A8
:10307000BD4680BD003801401F85EB5180B584B04E
:1030800000AF78600B46FB707B681B68FA781146CE
:10309000184600F039FB7B681B68184600F054FBAB
:1030A0000346FB737B681B680121184600F0F1FAA8
:1030B000FB7B18461037BD4680BD80B582B000AF9F
:1030C00078600B46FB701346BB707B681B68002161
:1030D000184600F0DEFA7B681A68FB7863F07F031D
:1030E000DBB21946104600F00FFB7B681B68BA780C
:1030F0001146184600F008FB7B681B680121184642
:1031000000F0C7FA00BF0837BD4680BD90B587B054
:1031100000AFF8607A601A460B46FB721346BB722A
:10312000BB7A012B27D9FB681B680021184600F0E9
:10313000B0FAFB681B68FA7A1146184600F0E4FA08
:103140000023FB750CE0FB681968FB7D7A68D418D6
:10315000084600F0F9FA03462370FB7D0133FB7546
:10316000FA7DBB7A9A42EED3FB681B6801211846B0
:1031700000F08FFA00E000BF1C37BD4690BD80B55F
:1031800086B000AFF8607A601A460B46FB721346B1
:10319000BB72BB7A012B29D9FB681B68002118463A
:1031A00000F077FAFB681A68FB7A63F07F03DBB202
:1031B0001946104600F0A8FA0023FB750BE0FB68E7
:1031C0001868FB7D7A6813441B78194600F09CFA56
:1031D000FB7D0133FB75FA7DBB7A9A42EFD3FB6826
:1031E0001B680121184600F054FA00E000BF1837B0
:1031F000BD4680BD80B586B000AF7860786800F0CD
:103200000DF90F2000F0C6FA786800F017F97B6816
:10321000D3E902234FF000004FF00001D90441EA46
:103220005231D0046F4A4FF00003FDF72DFC0246E7
:103230000B46C7E90423D7E904014FF000024FF021
:103240000003020C42EA01420B0CD3B23B73D7E9F4
:1032500004014FF000024FF00003020A42EA01624B
:103260000B0AD3B27B733B7CBB7307F10C020323C5
:1032700006217868FFF783FF342239217868FFF749
:103280001CFF7B681B7C1A46574B9B5C1A46092126
:103290007868FFF712FF0B220B217868FFF70DFF0C
:1032A00023220C217868FFF708FF7B685B7C1A46B5
:1032B0004E4B9B5C062B47D17B689B7C1A464C4B44
:1032C0009B5C1B01DAB27B68DB7C1946494B5B5C7B
:1032D0005B00DBB21344DBB20133DBB21A461D21C3
:1032E0007868FFF7EAFE7B685B7C1A463F4B9B5C85
:1032F0001B01DAB27B681B7D19463F4B5B5C9B0070
:10330000DBB21344DBB20333DBB21A461E2178680A
:10331000FFF7D3FE31217868FFF7B0FE0346FB7359
:10332000FB7B23F00703FB73FB7B43F00503FB737D
:10333000FB7B1A4631217868FFF7BFFE0C2237214C
:103340007868FFF7BAFE29E07B689B7C1A46284B19
:103350009B5C1B01DAB27B68DB7C1946254B5B5C0E
:103360005B00DBB21344DBB21A461D217868FFF71D
:10337000A4FE7B685B7C1A461C4B9B5C1B01DAB28B
:103380007B681B7D19461C4B5B5C9B00DBB21344C6
:10339000DBB21A461E217868FFF78FFE0422262131
:1033A0007868FFF78AFE08221F217868FFF785FEFC
:1033B000002220217868FFF780FE0822212178680A
:1033C000FFF77BFE012241217868FFF776FE7B68DC
:1033D000002283F81721786800F010F800BF183732
:1033E000BD4680BD0048E8016064000864640008D0
:1033F0006C640008786400087C64000880B582B0C2
:1034000000AF7860092201217868FFF756FE7B68DB
:1034100001229A7500BF0837BD4680BD80B582B0D5
:1034200000AF7860082201217868FFF746FE7B68CC
:1034300000229A7500BF0837BD4680BD80B582B0B6
:1034400000AF7860882201217868FFF736FE00BF60
:103450000837BD4680BD80B582B000AF7860FF22DE
:1034600012217868FFF729FE00BF0837BD4680BDEE
:1034700080B586B000AFF8600B467A60FB72FB68DF
:10348000FA7A5A75F868FFF7B5FE84224D21F8687C
:10349000FFF713FEFF222421F868FFF70EFE01223A
:1034A0004021F868FFF709FE3F221121F868FFF775
:1034B00004FEF868FFF7CFFFFB7A1A462221F8686E
:1034C000FFF7FBFD0F21F868FFF7D8FD0346FB75FA
:1034D000FB7D1A460D21F868FFF7EFFD8D220121D3
:1034E000F868FFF7EAFDFB68002283F8172118212E
:1034F000F868FFF7C3FD034603F00403042B04D16F
:10350000FB6803229A75012313E07B68013B7B6013
:103510007B68002B09D1FB681B68184600F0D0F8C7
:10352000F868FFF767FE002303E0012000F032F99E
:10353000DDE718461837BD4680BD80B584B000AFC2
:1035400078607B681B68184600F02FF90346002B53
:1035500030D07B6817334FF480720021184600F09A
:1035600073F910217868FFF789FD0346BB73BB7BB5
:103570001A460D217868FFF7A0FD7B685B7C002B65
:1035800003D17B685B7DFB7305E013217868FFF74F
:1035900075FD0346FB737B6803F11702FB7B00217B
:1035A0007868FFF7B3FD7B68FA7B83F817217868AA
:1035B000FFF751FF7B6893F8173118461037BD4667
:1035C00080BD80B584B000AFF860C7E90023FB6818
:1035D0001B68184600F048F8F968D7E90023C1E9EC
:1035E0000223FB683A7E1A74FB683A7F5A74FB68C0
:1035F00097F820209A74FB6897F82420DA74FB6807
:1036000097F828201A75FB6897F82C205A75F868E7
:10361000FFF7F0FD00BF1037BD4680BD80B584B018
:1036200000AFF860B9601346FB71FB6893F817317F
:10363000FA799A4203D0FB6893F81731FB71FB6863
:103640001733FA791946B86800F0F0F8FB79BA68D0
:10365000134400221A70FB68002283F81721FB79BB
:1036600018461037BD4680BD80B582B000AF786087
:103670000121786800F00DF87B6858687B681B684A
:103680009BB201221946FEF774FA00BF0837BD4607
:1036900080BD80B582B000AF786039607B685869C2
:1036A0007B681B6999B23B68012B0CBF0123002387
:1036B000DBB21A46FEF75DFA00BF0837BD4680BD93
:1036C00080B582B000AF786001217868FFF7E1FF34
:1036D0007B6858687B681B689BB200221946FEF71E
:1036E00048FA012000F056F87B6858687B681B6830
:1036F0009BB201221946FEF73CFA642000F04AF81A
:1037000000BF0837BD4680BD80B582B000AF78608D
:103710000B46FB7000217868FFF7BBFF7B68986958
:10372000F91C4FF47A730122FEF7D0FE00BF7B68CC
:103730009B691846FFF7B7F90346012BF7D100BF85
:1037400000BF0837BD4680BD80B586B002AF786047
:103750000023FB730023BB7300217868FFF799FFF8
:103760007B68986907F10E0207F10F014FF47A7335
:1037700000930123FEF7EEFF00BF7B689B691846AC
:10378000FFF791F90346012BF7D1BB7B18461037A1
:10379000BD4680BD80B582B000AF78607868FDF727
:1037A00045FF00BF0837BD4680BD80B582B000AF81
:1037B00078607B68DA687B689B689BB21946104624
:1037C000FEF7C0F90346012B0CBF01230023DBB237
:1037D00018460837BD4680BD014B1868704700BFCA
:1037E0000C00002070B500260C4D0D4C641BA4107D
:1037F000A64209D102F0BCFD00260A4D0A4C641B0A
:10380000A410A64205D170BD55F8043B9847013677
:10381000EEE755F8043B98470136F2E76468000884
:103820006468000864680008686800080A449142F7
:1038300000F1FF3300D1704710B511F8014B9142F0
:1038400003F8014FF9D110BD03460244934200D161
:10385000704703F8011BF9E7002B2DE9F0471F46DD
:10386000BBBF03F100431F4600232D2388B014463D
:10387000129A109D1370149BDDF84CA023F02008C1
:10388000B8F1460F05D0B8F1450F00D1013502233C
:1038900000E0032307AA049206AACDE902A2CDE91B
:1038A000003522463B4600F013FEB8F1470F0646AE
:1038B00002D1119BDB0722D5B8F1460F06EB0509B3
:1038C00010D13378302B0AD100220023204639460C
:1038D000FDF76AF818B9C5F10105CAF80050DAF821
:1038E000003099440022002320463946FDF75CF859
:1038F00008B1CDF81C903022079B4B4507D33046CA
:10390000079B159A9B1B136008B0BDE8F087591CF4
:1039100007911A70F0E70346F7B5002903F8022B68
:10392000B6BF2D222B224942092942702BDD0DF111
:103930000704A4460A2791FBF7F60A46A64607FBAA
:103940001615632A05F13005314604F1FF340EF8EF
:10395000015CF0DC3031AEF1020504F8011C2946AF
:10396000441C61450AD30DF10902A2EB0E02654524
:1039700088BF00221344181A03B0F0BD11F8012BC0
:1039800004F8012FEDE7302330318370C170031D3F
:10399000F1E700002DE9F04F91B00C46DDF86880AA
:1039A00016461F46054601F035FD03681846099383
:1039B000FCF7CEFB00230E93D8F800300A900733B3
:1039C00023F0070303F1080294F81890D4F800B02C
:1039D000C8F80020D3E90023C4E91223D4E9128AED
:1039E0002AF000430B934FF0FF3240469C4B0B995B
:1039F000FDF70CF870BB4FF0FF324046984B0B9927
:103A0000FCF7E6FF30BB0022002340465146FCF79E
:103A1000D5FF10B12D2384F84330924B9248B9F171
:103A2000470F94BF9846804603234FF0000A236156
:103A30002BF00403236033462146284600970FAA43
:103A400000F0D4F9013040F090804FF0FF3011B019
:103A5000BDE8F08F4246534640465146FCF7D6FF3C
:103A600048B1BAF1000FB8BF2D238048B8BF84F821
:103A700043307F4BD3E7636809F0DF015A1C42D122
:103A800006236360002206920EAACDE904920DAAD5
:103A90004BF4806303920DF13302CDE901322360D0
:103AA000636842460093284653460B91FFF7D4FEC5
:103AB0000B99804647290D9908D1C81C02DB636821
:103AC000994240DDA9F102095FFA89F9B9F1650F60
:103AD0001FD84A46013904F150000D91FFF71BFF32
:103AE0000E9A82461318012A236102DC2268D2074B
:103AF00001D5013323619DF83330002B9BD02D235A
:103B000084F8433097E74729BCD1002BBAD1012371
:103B1000B7E7B9F1660F18D1002963680BDD2161A1
:103B200013B92268D00702D501330B4423614FF04B
:103B3000000AA165DFE713B92268D20701D5023375
:103B4000F4E70123F2E74FF067090E9B994205DB8A
:103B500023682161D807EAD54B1CE7E70029CCBFD1
:103B60000122C1F102021344E0E723685A0507D499
:103B70002369424631462846B84701302BD164E7D5
:103B8000B9F1650F40F2DD80D4E912010022002373
:103B9000FCF70AFF002833D0012331462846354A76
:103BA000B84701303FF451AFDDE90D239A4202DB03
:103BB0002368D8070FD5DDE9092331462846B847E1
:103BC00001303FF442AF4FF0000804F11A090E9B98
:103BD000013B434509DC23689B0700F10281E06853
:103BE0000F9B9842B8BF184631E701234A46314639
:103BF0002846B84701303FF428AF08F10108E6E74E
:103C00000D9B002B38DC012331462846194AB84762
:103C100001303FF41AAFDDE90D23134302D12368CD
:103C2000D907D8D5DDE9092331462846B847013000
:103C30003FF40BAF4FF0000904F11A0A0D9B5B42F1
:103C40004B4501DC0E9B94E7012352463146284642
:103C5000B84701303FF4F9AE09F10109EEE700BFC2
:103C6000FFFFEF7F84640008886400089064000808
:103C70008C640008946400080E9AA36D9A42A8BF51
:103C80001A46002A914637DC4FF0000B29EAE97901
:103C900004F11A02D4F858A0AAEB09035B4533DCFF
:103CA000DDE90D239A423BDB2368DA0738D40E9B0B
:103CB0000D99A3EB0A02A3EB01099145A8BF914618
:103CC000B9F1000F34DC4FF0000829EAE97904F17A
:103CD0001A0ADDE90D239B1AA3EB090343457FF77D
:103CE0007AAF0123524631462846B84701303FF4A7
:103CF000ACAE08F10108ECE71346314642462846CF
:103D0000B8470130C0D1A0E60123314628460B92C6
:103D1000B84701303FF499AE0B9A0BF1010BB9E7AC
:103D20003146DDE909232846B8470130BFD18CE68A
:103D30004B463146284608EB0A02B8470130C2D14B
:103D400083E60E9A012A01DCDB0737D501234246C0
:103D500031462846B84701303FF477AEDDE9092304
:103D600031462846B84701303FF46FAED4E912011E
:103D700000220023FCF718FED8B90E9B08F10102BF
:103D8000013B31462846B84701300ED15DE601239C
:103D90004A4631462846B84701303FF456AE08F14E
:103DA00001080E9B013B4345F1DC534604F15002F0
:103DB000E0E64FF0000804F11A09F2E70123424659
:103DC000DFE701234A4631462846B84701303FF431
:103DD0003CAE08F10108E3680F995B1A4345F0DC3B
:103DE000FDE64FF0000804F11909F4E72DE9F0476A
:103DF000164699468A680B6907469342B8BF134630
:103E0000336091F843200C46DDF820800AB101337D
:103E100033602368990642BF3368023333602568F4
:103E200015F0060506D104F1190AE36832689B1AF9
:103E3000AB4228DC94F84320131E226818BF0123EC
:103E400092062DD44946384604F14302C04701305A
:103E500020D02368E56803F00603042B18BF002573
:103E600032684FF00006A36808BFAD1A226908BF88
:103E700025EAE5759342C4BF9B1AED181A34B54282
:103E80001AD1002008E00123524649463846C0476F
:103E9000013003D14FF0FF30BDE8F0870135C4E7B2
:103EA0003020E11881F843005A1C94F84510224450
:103EB000023382F84310C5E70123224649463846BB
:103EC000C0470130E6D00136D9E700002DE9FF47B1
:103ED0000F7E9146782F80460C469A460C9D01F144
:103EE000430207D8622F0AD8002F00F0D980582F3C
:103EF00000F0A48004F1420584F842703AE0A7F192
:103F00006303152BF6D801A151F823F0653F000893
:103F1000793F0008F53E0008F53E0008F53E000830
:103F2000F53E0008793F0008F53E0008F53E000820
:103F3000F53E0008F53E000887400008A93F00084C
:103F400069400008F53E0008F53E0008A940000859
:103F5000F53E0008A93F0008F53E0008F53E0008C0
:103F6000714000082B681A1D1B682A6004F1420585
:103F700084F842300123A4E020682968060601F194
:103F800004030AD50E682B60002E03DA2D23764237
:103F900084F843300A235E4819E00E6810F0400FA1
:103FA0002B6018BF36B2EFE72B682068191D296017
:103FB000010601D51E6802E04606FBD51E886F2F5C
:103FC0000CBF08230A235248002184F84310656877
:103FD000002DA8BF2168A560A4BF21F004012160C5
:103FE0000EB9002D4DD01546B6FBF3F103FB11675A
:103FF000C75D05F8017D3746BB420E46F4D9082B54
:104000000BD12368DE0708D5236961689942DEBFBA
:10401000302305F8013C05F1FF35521B22614B4668
:1040200021464046CDF800A003AAFFF7DFFE01308D
:104030004CD14FF0FF3004B0BDE8F087344881F830
:1040400045702968236851F8046B29601D0614D552
:10405000DF0744BF43F0200323601EB9236823F029
:10406000200323601023AFE7236843F0200323607D
:104070007823284884F84530E3E7590648BFB6B2AC
:10408000E6E71546BBE72B682668181D61692860BE
:1040900035061B6801D5196002E07006FBD5198052
:1040A000002315462361BAE72B6800211A1D2A60F8
:1040B0001D686268284601F021FA08B1401B606063
:1040C00063682361002384F84330A8E72A46494601
:1040D00040462369D0470130ABD023689B0713D4F7
:1040E000E068039B9842B8BF1846A4E70123324614
:1040F00049464046D04701309BD00135E3680399DB
:104100005B1AAB42F2DCEBE7002504F11906F5E798
:1041100096640008A76400080FB40A4B13B51C6826
:1041200024B1A36913B9204601F0D6F805AB2046A7
:10413000049AA168019301F089FE02B0BDE8104025
:1041400004B070470C00002070B50E46054618B14B
:1041500083690BB901F0C0F8AB69AC6813B92846A4
:1041600001F0BAF82C4B9C4220D16C68636EDB07DF
:1041700005D4A389980502D4A06D01F050F9A38954
:1041800019071DD52369DBB1013EA36816F8011F8D
:10419000013BA36039BB002B38DA22460A212846AE
:1041A00000F048F8013011D00A2511E01B4B9C4269
:1041B00001D1AC68DAE71A4B9C4208BFEC68D5E73E
:1041C0002146284600F088F80028DDD04FF0FF3562
:1041D000636EDA0705D4A3899B0502D4A06D01F0B4
:1041E0001FF9284670BD002B04DAA2699A4206DC4A
:1041F0000A2904D023685A1C22601970C5E7224698
:10420000284600F017F80130BFD1DFE70A25236800
:104210005A1C22601D70DBE768650008886500088D
:1042200048650008024B01461868FFF78DBF00BFC4
:104230000C000020F8B50E461446054618B18369F7
:104240000BB901F049F8214B9C422BD16C68A36952
:10425000A360A3891A072FD523696BB3236920684C
:10426000F6B2C01A63693746834204DC2146284609
:1042700000F09EFF30BBA3680130013BA3602368C0
:104280005A1C22601E706369834204D0A389DB0735
:1042900006D50A2E04D12146284600F089FF88B9A8
:1042A0003846F8BD0A4B9C4201D1AC68CFE7094BB8
:1042B0009C4208BFEC68CAE72146284600F00CF88B
:1042C0000028CBD04FF0FF37EAE700BF6865000851
:1042D0008865000848650008324B70B51D680646C1
:1042E0000C4625B1AB6913B9284600F0F5FF2E4BFB
:1042F0009C420FD16C68A389B4F90C2019072CD407
:10430000DD0611D40923336042F040034FF0FF3043
:10431000A3813EE0254B9C4201D1AC68EBE7244BE6
:104320009C4208BFEC68E6E7580712D5616B41B1C3
:1043300004F14403994202D0304601F083FC00238B
:104340006363A38923F02403A381002363602369AB
:104350002360A38943F00803A38123694BB9A38990
:1043600003F42073B3F5007F03D02146304601F0FB
:104370007DF8A089B4F90C2010F001030AD00023C5
:10438000A36063695B42A361236943B910F08000B5
:10439000BAD170BD810758BF6369A360F4E70020FC
:1043A000F7E700BF0C00002068650008886500087A
:1043B000486500082DE9F74F03690C690746A342D9
:1043C000C0F28280013C00F1140501F1140805EBF4
:1043D0008403019358F8243055F8242001339A427D
:1043E000B2FBF3F64FEA840B08EB840931D34FF0AC
:1043F000000E4046AC46F24650F8042B93B206FB42
:1044000003E3120C4FEA134E9BB206FB02E2AAEB47
:104410000303DCF800A04FEA124E1FFA8AFA534455
:10442000DCF800A092B2C2EB1A4202EB23429BB22C
:1044300043EA024381454FEA224A4CF8043BDBD26F
:1044400055F80B302BB9019B043B9D421A462FD3E4
:104450003C61384601F0DEFA002825DB28464FF0A3
:10446000000C013658F8041BD0F800E08BB2ACEB1E
:1044700003031FFA8EF213440A0CC2EB1E4202EB36
:1044800023429BB243EA0243C1454FEA224C40F823
:10449000043BE7D255F8242005EB840322B9043B02
:1044A0009D421A460AD33C61304603B0BDE8F08F06
:1044B0001268043B002ACBD1013CC6E71268043BDA
:1044C000002AF0D1013CEBE70020EEE700000000FD
:1044D0002DE9F04F16461F46446A99B00546CDE9CE
:1044E0000467DDF8948074B9102000F0FFFF0246E5
:1044F000686220B9EA21A84BA84801F03DFEC0E956
:1045000001440460C4606B6A196851B15A680123A0
:1045100093404A608B60284601F03EF800226B6AA7
:104520001A603B1EAFBF0023012223F00043059316
:10453000A8BFC8F80030DDF81490994BB8BFC8F890
:10454000002033EA090319D142F20F73249A136051
:10455000C9F31303334300F07F85269B53B9914B76
:1045600022E0914B03930833269A1360039819B005
:10457000BDE8F08F8B4B03930333F5E7DDE904349B
:10458000CDE90C34DDE90C0100220023FCF70CFA24
:10459000804658B10123249A1360269B002B00F01B
:1045A000588582481860431E0393DFE716AB0193DA
:1045B00017AB00932846DDE90C2301F0D3FAC9F3C9
:1045C0000A548346002C7FD0DDE90C010D9BA4F238
:1045D000FF34C3F3130343F07F5141F44011CDF88E
:1045E0004C800022724BFBF7BFFD65A3D3E900238B
:1045F000FBF772FF64A3D3E90023FBF7B7FD064680
:1046000020460F46FBF7FEFE61A3D3E90023FBF72C
:1046100063FF02460B4630463946FBF7A7FD0646C8
:104620000F46FCF709FA002282460023304639463D
:10463000FCF7C4F948B15046FBF7E4FE32463B466E
:10464000FCF7B2F908B90AF1FF3ABAF1160F58D8D7
:10465000DDE90C01574B03EBCA03D3E90023FCF758
:10466000ADF900284FD000230AF1FF3A0F93169BB3
:104670001C1B631E099349BFC4F101030023069369
:10468000002354BF06930993BAF1000F3DDB099B49
:10469000CDF838A05344099300230A93229B092B99
:1046A00000F28C80052BC4BF043B2293229BC8BF21
:1046B0000024A3F10203D8BF0124032B00F28A8057
:1046C000DFE803F02D4F4D5BDDE916431C4404F297
:1046D0003243202BC3BFC3F1400304F2124009FA56
:1046E00003F3C3F12003C6BF26FA00F0184306FA0D
:1046F00003F0FBF777FE0123A1F1F871013C13935E
:104700006FE70123B2E70F90B1E7069BA3EB0A0323
:104710000693CAF100030A9300230E93BEE7002319
:104720000B93239B002B58DC4FF001094B46CDF82F
:104730002090CDF88C900022686A4260042202F139
:1047400014069E4241684ED9284600F0E5FE0390CB
:1047500000284CD102464FF4D571174BCCE601230B
:10476000DEE700230B93239B0AEB030909F1010306
:10477000012B0893B8BF0123DDE70123F2E700BF57
:1047800061436F63A787D23FB3C8608B288AC63F57
:10479000FB799F501344D33FC5640008DC640008D4
:1047A0000000F07FC1640008B86400089564000848
:1047B0000000F83F30660008376500080124002338
:1047C0000B9422934FF0FF3900221223CDF8209052
:1047D0002392B0E701230B93F4E7DDF88C904B466E
:1047E000CDF82090A7E7013141605200A7E76B6A3E
:1047F000039A1A60089B0E2B00F2A880002C00F090
:10480000A580BAF1000F34DD9A4A0AF00F0302EBDB
:10481000C3031AF4807FD3E90034CDE910344FEAA2
:104820002A1416D0DDE90C01934B0327D3E90823A2
:10483000FBF77CFFCDE9040104F00F048E4E54B960
:10484000DDE91023DDE90401FBF770FFCDE9040188
:1048500029E00227F2E7E10708D5DDE91001D6E9F2
:104860000023FBF739FECDE910010137641008364B
:10487000E5E700F0A580DDE90C01CAF100047D4BFD
:1048800004F00F0203EBC203D3E90023FBF724FE7D
:1048900002270023CDE90401774E2411002C40F0BB
:1048A0008480002BD2D10F9B002B00F08B80DDE9A0
:1048B0000434CDE91034DDE9100100226F4BFCF720
:1048C0007DF800287ED0089B002B7BD0B9F1000F2B
:1048D00038DDDDE910010022694BFBF7FDFD4C4698
:1048E000CDE904010AF1FF3801373846FBF78AFDAC
:1048F000DDE90423FBF7F0FD0022624BFBF736FCF9
:10490000A1F15076CDE910011196002C5DD1DDE9C1
:10491000040100225C4BFBF727FC02460B46CDE965
:1049200004233346109AFCF767F8002840F09C8275
:10493000DDE90401109A06F10043FCF73FF8002876
:1049400040F09082DDE90C34CDE90434179B002B54
:10495000C0F25281BAF10E0F00F34E81454B03EBCA
:10496000CA03D3E90034CDE90634239B002B80F23F
:10497000DB80089B002B00F3D78040F07282DDE9DA
:1049800006010022404BFBF7A7FDDDE90423FCF7FD
:1049900029F8089C2646002840F048823123039FCE
:1049A0000AF1010A07F8013B44E2E20705D5D6E91E
:1049B0000023FBF791FD01230137641008366DE7F2
:1049C000022770E7D046089C8FE70399294B2144C2
:1049D00012910B9903EBC403DDE9106753E902233D
:1049E000002955D000202949FBF7A0FE3B4632465E
:1049F000FBF7BAFBCDE91001039FDDE90401FCF7E9
:104A00001BF80446FBF7FEFC02460B46DDE90401F9
:104A1000FBF7AAFB02460B463034CDE90423DDE95F
:104A2000102307F8014BFBF7C9FF002874D1DDE91B
:104A3000042300201149FBF797FBDDE91023FBF766
:104A4000BDFF002840F0B780129B9F423FF47AAF31
:104A5000DDE9100100220A4BFBF73EFD0022CDE903
:104A60001001DDE90401064BFBF736FDCDE9040139
:104A7000C3E700BF30660008086600080000F03F8A
:104A80000000244000001C40000014400000E03FF3
:104A900030463946FBF720FD129BCDE91001039CFF
:104AA0001493DDE90401FBF7C7FF1590FBF7AAFC9F
:104AB00002460B46DDE90401FBF756FB159B064653
:104AC000303304F8013B129B0F469C424FF000022A
:104AD00024D1DDE91001B04BFBF748FB02460B4641
:104AE00030463946FBF788FF002863D1DDE9102303
:104AF0000020A949FBF738FB02460B4630463946F1
:104B0000FBF75CFF00283FF41DAF149F7B1E14933E
:104B100017F8013C302BF8D0C2463BE09F4BFBF727
:104B2000DBFCCDE90401BCE7039FDDE90489DDE995
:104B3000062340464946FBF7F9FDFBF77DFF044697
:104B4000FBF760FCDDE90623FBF7C6FC02460B46DB
:104B500040464946FBF708FB04F1300607F8016BB5
:104B6000039EDDF820C0BE1BB44502460B4636D17D
:104B7000FBF7FCFADDE9062380468946FBF73CFF9C
:104B800058BBDDE9062340464946FBF70DFF08B157
:104B9000E10722D42846594600F0FEFC00233B7072
:104BA000249B0AF101001860269B002B3FF4DEAC29
:104BB0001F60DBE427463B461F4613F8012D392AC8
:104BC00007D1039A9A42F7D13022039908F10108DC
:104BD0000A701A7801321A709EE7D046EBE700227D
:104BE0006E4BFBF779FC0022002380468946FBF7D9
:104BF000DBFE00289BD0CDE70B9A002A00F0D08086
:104C0000229A012A00F3AE80139A002A00F0A680AF
:104C100003F233430A9C069F069A01211A44069226
:104C2000099A28461A44099200F06CFD0646002FA6
:104C30000CDD099B002B09DDBB42A8BF3B46069A51
:104C4000FF1AD21A0692099AD31A09930A9BF3B152
:104C50000B9B002B00F0A880002C10DD3146224673
:104C6000284600F00DFE5A4601460646284600F04A
:104C70005FFD80465946284600F08EFCC3460A9BDD
:104C80001A1B04D05946284600F0FAFD834601213C
:104C9000284600F037FD0E9B0446002B40F386802B
:104CA0001A460146284600F0EBFD229B0446012BE4
:104CB0007FDD4FF00008236904EB8303186900F0DF
:104CC000D3FCC0F12000099B184410F01F0000F035
:104CD0009280C0F12003042B40F38A80C0F11C00B5
:104CE000069B074403440693099B03440993069BD0
:104CF000002B05DD59461A46284600F01BFE834668
:104D0000099B002B05DD21461A46284600F012FEBD
:104D100004460F9B002B70D02146584600F07AFEC7
:104D200000286ADA002359460A22284600F056FC79
:104D30000B9B83460AF1FF3A002B00F09481314629
:104D400000230A22284600F049FCB9F1000F06466C
:104D500000F39380229B022B57DC8EE0169BC3F15D
:104D6000360357E7089B5C1E0A9BA342B7BF0A9B0A
:104D70001C1BE21A0E9BBEBF0A949B180E93089B45
:104D8000B8BF0024002BBBBF069B089A069F9F1A42
:104D9000ACBF089B00233FE70000E03F0000244039
:104DA0000A9C069F0B9E42E70A9A6BE7229B012B07
:104DB00019DC049BBBB9059BC3F313039BB9059B8B
:104DC00023F000431B0D1B0583B14FF00108069B28
:104DD00001330693099B013309930E9B002B7FF44B
:104DE0006AAF01206FE74FF00008F6E79846F4E756
:104DF0003FF47DAF18461C3072E7089B002B36DC71
:104E0000229B022B33DDDDF82090B9F1000F0DD18C
:104E100021464B460522284600F0E0FB01460446A9
:104E2000584600F0F7FD00283FF7B8AD239B039FDD
:104E30006FEA030A4FF000082146284600F0ACFB59
:104E4000002E3FF4A7AEB8F1000F05D0B04503D057
:104E50004146284600F0A0FB3146284600F09CFB66
:104E600098E600242646E1E7C246264696E50B9BD7
:104E7000DDF82090002B00F0FD80002F05DD31468D
:104E80003A46284600F056FD0646B8F1000F5CD0C1
:104E90002846716800F040FB074628B9024640F2F8
:104EA000EA217F4BFFF728BB326906F10C01023281
:104EB00092000C30FEF7BAFC01223946284600F079
:104EC00039FDB0460646039B01330893039B4B44D0
:104ED0000A93049B03F001030993089B2146013BBD
:104EE00058460493FFF766FA03464146303306906E
:104EF00058460B9300F08EFD3246814621462846E7
:104F000000F0A4FDC26807460B9B02BB0146584651
:104F100000F080FD02460B9B39462846CDE90B3256
:104F200000F03AFB229B0C9A089F43EA0201099B7E
:104F30000B430B9B0DD1392B29D0B9F1000F01DDAB
:104F4000069B3133049A137076E73046B9E70122A5
:104F5000E2E7B9F1000F06DB229941EA0909099954
:104F600059EA010120D1002AECDD594601222846E8
:104F7000089300F0DFFC2146834600F04BFD00283B
:104F8000089B02DCDED1DA07DCD5392BD8D13923F6
:104F9000049A13703B461F4617F8012C013B392A2F
:104FA00050D001321A7047E7002A03DD392BEED0CA
:104FB0000133C7E7089A0A9902F8013C8A422AD0CD
:104FC000594600230A22284600F008FBB0458346D4
:104FD0004FF000034FF00A024146284607D100F087
:104FE000FDFA80460646089B0133089375E700F0FA
:104FF000F5FA3146804600230A22284600F0EEFAF0
:105000000646F0E7B9F1000FCCBF4F4601274FF03D
:105010000008039A1744594601222846089300F0D5
:1050200089FC2146834600F0F5FC0028B2DC02D161
:10503000089BDB07AED43B461F4613F8012D302AF0
:10504000FAD0F9E6039A9A42A5D131230AF1010A6E
:1050500079E7144BFFF7A8BA269B002B7FF481AAAF
:10506000114BFFF7A1BAB9F1000F03DC229B022B11
:105070003FF7CBAE039F21465846FFF79BF9039AB3
:1050800000F1300307F8013BBA1A9145BADD5946E1
:1050900000230A22284600F0A1FA8346EBE700BF6E
:1050A0003765000894640008B86400088A89F8B578
:1050B000054610070C4657D44B68002B04DC0B6CDC
:1050C000002B01DC0020F8BDE66A002EFAD0002398
:1050D00012F480522F682B6032D0606DA3895A077A
:1050E00005D56368C01A636B0BB1236CC01A00232B
:1050F0000246E66A2846216AB047431CA38906D1C6
:1051000029681D292CD8294ACA40D60728D500224B
:1051100062602269D904226004D5421C01D12B6847
:1051200003B96065616B2F600029CBD004F14403A3
:10513000994202D0284600F085FD00206063C2E756
:10514000216A01232846B047411CC7D12B68002B98
:10515000C4D01D2B01D0162B01D12F60B2E7A3893B
:1051600043F04003A381AEE70F69002FAAD0930755
:1051700018BF00230E6808BF4B69F61B0F608B60D9
:10518000002E9FDD33463A462846216AD4F828C0CF
:10519000E047002806DCA3894FF0FF3043F04003CE
:1051A000A38190E70744361AEAE700BF01004020D8
:1051B00038B50B6905460C4613B90025284638BD9D
:1051C00018B183690BB900F087F8144B9C421BD1CE
:1051D0006C68B4F90C30002BEFD0626ED00704D4A9
:1051E000990502D4A06D00F01AF928462146FFF770
:1051F0005DFF636E0546DA07E0D4A3899B05DDD425
:10520000A06D00F00DF9D9E7054B9C4201D1AC68C7
:10521000DFE7044B9C4208BFEC68DAE768650008EA
:105220008865000848650008002310B50446C0E9F9
:105230000033C0E90433836081814366C2818361A6
:10524000194608225C30FEF7FFFA054B24626362C0
:10525000044BA362044BE362044B236310BD00BF05
:10526000CD600008EF600008276100084B6100086E
:10527000014900F0AFB800BFB1510008682270B515
:105280004D1E55430E4605F1740100F043FD0446E2
:1052900040B10021C0E900160C30A06005F16802A1
:1052A000FEF7D2FA204670BD014800F0B8B800BF42
:1052B000DD050020014800F0B3B800BFDD05002087
:1052C000014800F0ACB800BFDE050020014800F046
:1052D000A7B800BFDE05002010B50446FFF7F0FFB9
:1052E000A3691BB1BDE81040FFF7F0BFC4E912335A
:1052F0002365134B134A1B68A262A34208BF012314
:10530000204608BFA36100F01FF86060204600F04F
:105310001BF8A060204600F017F800220421E0608E
:105320006068FFF781FF01220921A068FFF77CFF79
:1053300002221221E068FFF777FF0123A361D1E782
:105340008064000871520008F8B50746FFF7ACFF0B
:105350001E4B1E68B36913B93046FFF7BDFF4836D0
:10536000D6E90134013B03D533680BB33668F7E760
:10537000B4F90C50D5B9164B04F15800E3606566DA
:1053800000F04CF8FFF796FF08222946C4E90155C2
:10539000C4E904552560A56104F15C00FEF754FAE8
:1053A000C4E90D55C4E912552046F8BD6834D9E763
:1053B00004213846FFF762FF044630600028D5D14B
:1053C000FFF778FF0C233B60EEE700BF8064000826
:1053D0000100FFFF2DE9F84306468846002700F14B
:1053E0004804D4E90195B9F1010905D52468002CD8
:1053F000F7D13846BDE8F883AB89012B07D9B5F959
:105400000E30013303D029463046C0470743683584
:10541000E9E70000004870476001002070477047CE
:10542000704770B50E46B1F90E10144600291D469E
:1054300096B008DA0022B6F90C302A601A0610D4A9
:105440004FF480630EE06A4600F0D6FE0028F1DBE0
:10545000019A02F47042A2F500535A425A412A605E
:10546000EEE740230020236016B070BD8B8973B532
:105470009D0706460C4607D504F1470323602361C8
:105480000123636102B070BD6A4601ABFFF7C9FF3B
:1054900000990546304600F03DFC48B9B4F90C309F
:1054A0009A05EFD423F0030343F00203A381E3E75B
:1054B0000D4BB362A389206043F08003A381009B5E
:1054C00020616361019B5BB13046B4F90E1000F0BE
:1054D000A5FE28B1A38923F0030343F00103A381B0
:1054E000A0890543A581CDE771520008024B014612
:1054F000186800F00FBC00BF0C000020034610B578
:10550000C9B202449342184601D1002003E0047856
:1055100001338C42F6D110BD70B5466A04460D4683
:1055200076B91020FFF7E2FF0246606220B96621DB
:10553000174B184800F020FEC0E901660660C660FF
:10554000666AF36883B1636ADB6853F82500B8B90B
:10555000012101FA05F6721D2046920000F05EFB63
:1055600060B1C0E901560EE021220421204600F07E
:1055700055FB636AF060DB68002BE4D1002070BD4E
:10558000026843F825200023C0E90333F7E700BF92
:10559000C5640008A865000870B5466A05460C4653
:1055A00076B91020FFF7A2FF0246686220B98A216F
:1055B000084B094800F0E0FDC0E901660660C660DE
:1055C0003CB16B6A6268DB6853F82210216043F8D3
:1055D000224070BDC5640008A86500082DE9F041AF
:1055E00007460C461E4600200D6901F1140CDCF83C
:1055F0000030013099B202FB01611E0C0B0C02FB62
:10560000063389B201EB034185424FEA13464CF859
:10561000041BECDC0EB3A368AB4219DC61683846AE
:105620000131FFF779FF804628B90246B5210C4BBE
:105630000C4800F0A1FD226904F10C010232920035
:105640000C30FEF7F3F821463846FFF7A5FF444635
:1056500004EB850301355E6125612046BDE8F081DC
:1056600037650008A8650008020C12040346CAB991
:105670000304102013F07F4F04BF1B02083013F007
:10568000704F04BF1B01043013F0404F04BF9B0058
:105690000230002B05DB13F0804F00F1010008BF42
:1056A000202070470020E5E70368024613F007005A
:1056B0000BD0D90721D4980749BF5B089B0801206C
:1056C00013605CBF02201360704799B209B91020C3
:1056D0001B0CD9B209B908301B0A190704BF1B09F2
:1056E0000430990704BF9B080230D90703D45B0834
:1056F00000F1010003D013607047002070472020A4
:105700007047000010B50C460121FFF705FF024667
:1057100028B94FF4A071044B044800F02DFD01237B
:105720004461036110BD00BF37650008A86500082B
:105730002DE9F04F91460A69D9F810300C469A428B
:10574000BEBF0B464C4699462769D9F810A0A368FE
:10575000616807EB0A06B34285B0B8BF0131FFF7B5
:10576000DBFE30B9024640F25D11434B434800F086
:1057700003FD00F114052B46002205EB8608434586
:1057800021D304F1140303EB870709F1140303EB9E
:105790008A0202923A1B153A22F00302043204F103
:1057A00015018F4238BF04220192029A03939A4254
:1057B0000CD8002E03DD58F8043D002B59D00661AB
:1057C00005B0BDE8F08F43F8042BD8E7B3F800A08C
:1057D000BAF1000F23D0A9464FF0000C04F1140ECB
:1057E0005EF8042BD9F800101FFA82FB89B20AFB7D
:1057F0000B116144D9F800C0120C4FEA1C4C0AFB93
:1058000002C202EB114289B241EA024177454FEAF6
:10581000124C49F8041BE3D8019A45F802C0039AD8
:105820000433B2F80290B9F1000F20D0AE464FF029
:10583000000A296804F1140CBCF800B0BEF802207C
:1058400089B209FB0B22924441EA0A414EF8041B3B
:105850005CF8042BBEF80010120C09FB021167451E
:1058600001EB1A414FEA114AE6D8019AA9500435D2
:105870009BE7013E9DE700BF37650008A86500086B
:105880002DE9F843154612F0030206460F4607D0ED
:10589000254C013A002354F82220FFF79FFE0746CB
:1058A000AD103DD0746A7CB91020FFF71FFE024690
:1058B000706228B94FF4D7711C4B1D4800F05CFC96
:1058C000C0E901440460C460D6F82480D8F80840D8
:1058D0004CB940F271213046FFF714FF0023044613
:1058E000C8F8080003604FF00009EB070AD53946F5
:1058F00022463046FFF71CFF804639463046FFF708
:105900004BFE47466D100BD0206838B92246214621
:105910003046FFF70DFF2060C0F800900446E4E732
:105920003846BDE8F88300BFF8660008C564000883
:10593000A86500082DE9F0470C4607469146236903
:10594000496803EB6218A3684FEA621A08F101067E
:10595000B3420BDB3846FFF7DFFD054648B9024688
:1059600040F2D911294B2A4800F006FC01315B00B6
:10597000EEE7002300F1140100F110021846534530
:1059800037DB20692AEAEA7A04F1140319F01F09C7
:1059900001EB8A0103EB80002FD08A464FF0000C08
:1059A000C9F1200E1A6802FA09F242EA0C024AF81A
:1059B000042B53F8042B984222FA0EFCF2D8031B56
:1059C000153B23F00303043304F11502904238BF62
:1059D000042341F803C0BCF1000F01D008F1020616
:1059E000013E384621462E61FFF7D6FD2846BDE828
:1059F000F08742F8040F0133C1E7043953F8042B50
:105A0000984241F8042FF9D8EAE700BF376500084B
:105A1000A865000803460A69006930B5801A0DD1EF
:105A20001433143103EB820401EB820154F8045D5A
:105A300051F8042D954202D004D3012030BDA34279
:105A4000F4D3FBE74FF0FF30F8E700002DE9F84F03
:105A50000D460746114628461446FFF7DBFF061E93
:105A600011D131463846FFF757FD024628B940F2BA
:105A700032213A4B3A4800F07FFB0123C0E904365B
:105A80001046BDE8F88FA4BF23462C46384661680F
:105A9000A6BF1D4600260126FFF73EFD024618B9A7
:105AA0004FF410712D4BE5E702F11408C2464FF098
:105AB000000C2769C6602E6904F1140005F1140971
:105AC00000EB870E09EB8606103454F804BF59F832
:105AD000043B1FFA8BF18C4499B21B0CACEB010117
